{
  "transactions": [
    {
      "hash": "0xb88b9f9475b8952ce648d502a005253b86217bab9c35307aed991b77ffd9333a",
      "transactionType": "CALL",
      "contractName": null,
      "contractAddress": "0xdd1376da1a988d9c35562c9aa06a68d8a5fc7237",
      "function": "changeController(uint8,bytes32,bytes32,address)",
      "arguments": [
        "28",
        "0x1932cb842d3e27f54f79f7be0289437381ba2410fdefbae36850bee9c41e3b91",
        "0x87b7639b5f24e93bf106794133370f950d5e9b00f5b5c8cbd866a487529b814f",
        "0x0000000000000000000000000000000000000000"
      ],
      "transaction": {
        "from": "0x64dd9d94818a2ca2e95c31b084aef0cc92e86da2",
        "to": "0xdd1376da1a988d9c35562c9aa06a68d8a5fc7237",
        "gas": "0x1230a",
        "value": "0x0",
        "input": "0x3e8cd570000000000000000000000000000000000000000000000000000000000000001c1932cb842d3e27f54f79f7be0289437381ba2410fdefbae36850bee9c41e3b9187b7639b5f24e93bf106794133370f950d5e9b00f5b5c8cbd866a487529b814f0000000000000000000000000000000000000000000000000000000000000000",
        "nonce": "0x427",
        "chainId": "0xaa36a7"
      },
      "additionalContracts": [],
      "isFixedGasLimit": false
    }
  ],
  "receipts": [
    {
      "status": "0x1",
      "cumulativeGasUsed": "0xa49537",
      "logs": [
        {
          "address": "0xdd1376da1a988d9c35562c9aa06a68d8a5fc7237",
          "topics": [
            "0x8cf1cbc25758c16f47e27029c8104e5be712c49e9baaf12c1fd697a91b431680",
            "0x0000000000000000000000000000000000000000000000000000000000000000"
          ],
          "data": "0x00000000000000000000000000000000000000000000000000000000682e6054",
          "blockHash": "0x4b671f75cf61562d592f0678f4df5fd78c3cad3183f2d7e4b3e59cf19bf235e8",
          "blockNumber": "0x7fd754",
          "blockTimestamp": "0x682e6054",
          "transactionHash": "0xb88b9f9475b8952ce648d502a005253b86217bab9c35307aed991b77ffd9333a",
          "transactionIndex": "0x63",
          "logIndex": "0x88",
          "removed": false
        }
      ],
      "logsBloom": "0x00000000000000100000000000000000000000000000000000000000000000000000000000000000000000000000000000000000000000000000000000000000000000000000000000000000000000000000000000200000000000000000000000010000020000001000000000000800000000000000000000000000000000000000000000000000000000000000000000000000000000000000000000000000000001000000000000000000000000000000000000000000000000000000000000000000000000000000000000000000000000000000000000000000000020000000000000000800000000000000000000000000000000000000000000000000",
      "type": "0x2",
      "transactionHash": "0xb88b9f9475b8952ce648d502a005253b86217bab9c35307aed991b77ffd9333a",
      "transactionIndex": "0x63",
      "blockHash": "0x4b671f75cf61562d592f0678f4df5fd78c3cad3183f2d7e4b3e59cf19bf235e8",
      "blockNumber": "0x7fd754",
      "gasUsed": "0xc701",
      "effectiveGasPrice": "0xf424c",
      "from": "0x64dd9d94818a2ca2e95c31b084aef0cc92e86da2",
      "to": "0xdd1376da1a988d9c35562c9aa06a68d8a5fc7237",
      "contractAddress": null
    }
  ],
  "libraries": [],
  "pending": [],
  "returns": {},
  "timestamp": 1747869780,
  "chain": 11155111,
  "commit": "06452e2"
}