{
  "transactions": [
    {
      "hash": "0xbf8a5658023b86bb0d28c0f9fa3af3a93aead9979e18d17e52f5cdbfe5ad33b3",
      "transactionType": "CALL",
      "contractName": null,
      "contractAddress": "0x8ca782f47ddbfa3f955ec78b0042b412d5f66247",
      "function": "setAnimalAndSpin(string)",
      "arguments": [
        "Firulais"
      ],
      "transaction": {
        "from": "0x64dd9d94818a2ca2e95c31b084aef0cc92e86da2",
        "to": "0x8ca782f47ddbfa3f955ec78b0042b412d5f66247",
        "gas": "0x1188a",
        "value": "0x0",
        "input": "0xab3b922400000000000000000000000000000000000000000000000000000000000000200000000000000000000000000000000000000000000000000000000000000008466972756c616973000000000000000000000000000000000000000000000000",
        "nonce": "0x42d",
        "chainId": "0xaa36a7"
      },
      "additionalContracts": [],
      "isFixedGasLimit": false
    },
    {
      "hash": "0x30e40179df1901437693cd7b0dff7e2629417e09bcc8799bbc6977d28d4b5725",
      "transactionType": "CALL",
      "contractName": null,
      "contractAddress": "0x8ca782f47ddbfa3f955ec78b0042b412d5f66247",
      "function": "changeAnimal(string,uint256)",
      "arguments": [
        "Firulais",
        "22107626463292723717851840512"
      ],
      "transaction": {
        "from": "0x64dd9d94818a2ca2e95c31b084aef0cc92e86da2",
        "to": "0x8ca782f47ddbfa3f955ec78b0042b412d5f66247",
        "gas": "0xf29e",
        "value": "0x0",
        "input": "0x932289cc00000000000000000000000000000000000000000000000000000000000000400000000000000000000000000000000000000000476f000000000000000000000000000000000000000000000000000000000000000000000000000000000008466972756c616973000000000000000000000000000000000000000000000000",
        "nonce": "0x42e",
        "chainId": "0xaa36a7"
      },
      "additionalContracts": [],
      "isFixedGasLimit": false
    }
  ],
  "receipts": [
    {
      "status": "0x1",
      "cumulativeGasUsed": "0xe89573",
      "logs": [],
      "logsBloom": "0x00000000000000000000000000000000000000000000000000000000000000000000000000000000000000000000000000000000000000000000000000000000000000000000000000000000000000000000000000000000000000000000000000000000000000000000000000000000000000000000000000000000000000000000000000000000000000000000000000000000000000000000000000000000000000000000000000000000000000000000000000000000000000000000000000000000000000000000000000000000000000000000000000000000000000000000000000000000000000000000000000000000000000000000000000000000",
      "type": "0x2",
      "transactionHash": "0xbf8a5658023b86bb0d28c0f9fa3af3a93aead9979e18d17e52f5cdbfe5ad33b3",
      "transactionIndex": "0x83",
      "blockHash": "0x70934e780c80d88507868ebc5365417d772d09e340af22a0f009d1bdde5157f0",
      "blockNumber": "0x805875",
      "gasUsed": "0xcb1c",
      "effectiveGasPrice": "0x17e5bdb",
      "from": "0x64dd9d94818a2ca2e95c31b084aef0cc92e86da2",
      "to": "0x8ca782f47ddbfa3f955ec78b0042b412d5f66247",
      "contractAddress": null
    },
    {
      "status": "0x1",
      "cumulativeGasUsed": "0xe9451a",
      "logs": [],
      "logsBloom": "0x00000000000000000000000000000000000000000000000000000000000000000000000000000000000000000000000000000000000000000000000000000000000000000000000000000000000000000000000000000000000000000000000000000000000000000000000000000000000000000000000000000000000000000000000000000000000000000000000000000000000000000000000000000000000000000000000000000000000000000000000000000000000000000000000000000000000000000000000000000000000000000000000000000000000000000000000000000000000000000000000000000000000000000000000000000000",
      "type": "0x2",
      "transactionHash": "0x30e40179df1901437693cd7b0dff7e2629417e09bcc8799bbc6977d28d4b5725",
      "transactionIndex": "0x84",
      "blockHash": "0x70934e780c80d88507868ebc5365417d772d09e340af22a0f009d1bdde5157f0",
      "blockNumber": "0x805875",
      "gasUsed": "0xafa7",
      "effectiveGasPrice": "0x17e5bdb",
      "from": "0x64dd9d94818a2ca2e95c31b084aef0cc92e86da2",
      "to": "0x8ca782f47ddbfa3f955ec78b0042b412d5f66247",
      "contractAddress": null
    }
  ],
  "libraries": [],
  "pending": [],
  "returns": {
    "carousel": {
      "internal_type": "contract MagicAnimalCarousel",
      "value": "0x8cA782f47DdbFA3F955eC78B0042B412D5f66247"
    }
  },
  "timestamp": 1748272909,
  "chain": 11155111,
  "commit": "4c632de"
}