{
  "transactions": [
    {
      "hash": "0xa5db97e253b0cd80cd4c4701b24100e5990123a28b5c4701d2ed6f971a90ff86",
      "transactionType": "CALL",
      "contractName": null,
      "contractAddress": "0x8ca782f47ddbfa3f955ec78b0042b412d5f66247",
      "function": "setAnimalAndSpin(string)",
      "arguments": [
        "Firulais"
      ],
      "transaction": {
        "from": "0x64dd9d94818a2ca2e95c31b084aef0cc92e86da2",
        "to": "0x8ca782f47ddbfa3f955ec78b0042b412d5f66247",
        "gas": "0x174ce",
        "value": "0x0",
        "input": "0xab3b922400000000000000000000000000000000000000000000000000000000000000200000000000000000000000000000000000000000000000000000000000000008466972756c616973000000000000000000000000000000000000000000000000",
        "nonce": "0x42a",
        "chainId": "0xaa36a7"
      },
      "additionalContracts": [],
      "isFixedGasLimit": false
    },
    {
      "hash": "0x33aab919fd1afaeec74f1bc6417bdf08770d158ff6632a057fd2c20b68d503f7",
      "transactionType": "CALL",
      "contractName": null,
      "contractAddress": "0x8ca782f47ddbfa3f955ec78b0042b412d5f66247",
      "function": "changeAnimal(string,uint256)",
      "arguments": [
        "Firulais",
        "1"
      ],
      "transaction": {
        "from": "0x64dd9d94818a2ca2e95c31b084aef0cc92e86da2",
        "to": "0x8ca782f47ddbfa3f955ec78b0042b412d5f66247",
        "gas": "0x8f4a",
        "value": "0x0",
        "input": "0x932289cc000000000000000000000000000000000000000000000000000000000000004000000000000000000000000000000000000000000000000000000000000000010000000000000000000000000000000000000000000000000000000000000008466972756c616973000000000000000000000000000000000000000000000000",
        "nonce": "0x42b",
        "chainId": "0xaa36a7"
      },
      "additionalContracts": [],
      "isFixedGasLimit": false
    }
  ],
  "receipts": [
    {
      "status": "0x1",
      "cumulativeGasUsed": "0xc6ea09",
      "logs": [],
      "logsBloom": "0x00000000000000000000000000000000000000000000000000000000000000000000000000000000000000000000000000000000000000000000000000000000000000000000000000000000000000000000000000000000000000000000000000000000000000000000000000000000000000000000000000000000000000000000000000000000000000000000000000000000000000000000000000000000000000000000000000000000000000000000000000000000000000000000000000000000000000000000000000000000000000000000000000000000000000000000000000000000000000000000000000000000000000000000000000000000",
      "type": "0x2",
      "transactionHash": "0xa5db97e253b0cd80cd4c4701b24100e5990123a28b5c4701d2ed6f971a90ff86",
      "transactionIndex": "0x6f",
      "blockHash": "0x78d20ab5bc27eb9f6d289ab45ab3c0ab2ac00277f70907b36edbb0acaa2eeebf",
      "blockNumber": "0x80584e",
      "gasUsed": "0x10de8",
      "effectiveGasPrice": "0x3474220",
      "from": "0x64dd9d94818a2ca2e95c31b084aef0cc92e86da2",
      "to": "0x8ca782f47ddbfa3f955ec78b0042b412d5f66247",
      "contractAddress": null
    },
    {
      "status": "0x1",
      "cumulativeGasUsed": "0xc74c03",
      "logs": [],
      "logsBloom": "0x00000000000000000000000000000000000000000000000000000000000000000000000000000000000000000000000000000000000000000000000000000000000000000000000000000000000000000000000000000000000000000000000000000000000000000000000000000000000000000000000000000000000000000000000000000000000000000000000000000000000000000000000000000000000000000000000000000000000000000000000000000000000000000000000000000000000000000000000000000000000000000000000000000000000000000000000000000000000000000000000000000000000000000000000000000000",
      "type": "0x2",
      "transactionHash": "0x33aab919fd1afaeec74f1bc6417bdf08770d158ff6632a057fd2c20b68d503f7",
      "transactionIndex": "0x70",
      "blockHash": "0x78d20ab5bc27eb9f6d289ab45ab3c0ab2ac00277f70907b36edbb0acaa2eeebf",
      "blockNumber": "0x80584e",
      "gasUsed": "0x61fa",
      "effectiveGasPrice": "0x3474220",
      "from": "0x64dd9d94818a2ca2e95c31b084aef0cc92e86da2",
      "to": "0x8ca782f47ddbfa3f955ec78b0042b412d5f66247",
      "contractAddress": null
    }
  ],
  "libraries": [],
  "pending": [],
  "returns": {
    "carousel": {
      "internal_type": "contract MagicAnimalCarousel",
      "value": "0x8cA782f47DdbFA3F955eC78B0042B412D5f66247"
    }
  },
  "timestamp": 1748272430,
  "chain": 11155111,
  "commit": "4c632de"
}