{
  "transactions": [
    {
      "hash": "0x71e8011633020c2fe40afdcacc2bd7e1cad209e86125a9d6968bd95ffcf23e9b",
      "transactionType": "CALL",
      "contractName": null,
      "contractAddress": "0x8ca782f47ddbfa3f955ec78b0042b412d5f66247",
      "function": "setAnimalAndSpin(string)",
      "arguments": [
        "Firulais"
      ],
      "transaction": {
        "from": "0x64dd9d94818a2ca2e95c31b084aef0cc92e86da2",
        "to": "0x8ca782f47ddbfa3f955ec78b0042b412d5f66247",
        "gas": "0x1188a",
        "value": "0x0",
        "input": "0xab3b922400000000000000000000000000000000000000000000000000000000000000200000000000000000000000000000000000000000000000000000000000000008466972756c616973000000000000000000000000000000000000000000000000",
        "nonce": "0x430",
        "chainId": "0xaa36a7"
      },
      "additionalContracts": [],
      "isFixedGasLimit": false
    },
    {
      "hash": "0x2824cc2e4c393c846eae7e7959b0cfdba773157b54faeb8691eb583a5e6f6345",
      "transactionType": "CALL",
      "contractName": null,
      "contractAddress": "0x8ca782f47ddbfa3f955ec78b0042b412d5f66247",
      "function": "changeAnimal(string,uint256)",
      "arguments": [
        "Firulais",
        "460209371150905893715968"
      ],
      "transaction": {
        "from": "0x64dd9d94818a2ca2e95c31b084aef0cc92e86da2",
        "to": "0x8ca782f47ddbfa3f955ec78b0042b412d5f66247",
        "gas": "0xf29e",
        "value": "0x0",
        "input": "0x932289cc000000000000000000000000000000000000000000000000000000000000004000000000000000000000000000000000000000000000617400000000000000000000000000000000000000000000000000000000000000000000000000000008466972756c616973000000000000000000000000000000000000000000000000",
        "nonce": "0x431",
        "chainId": "0xaa36a7"
      },
      "additionalContracts": [],
      "isFixedGasLimit": false
    }
  ],
  "receipts": [
    {
      "status": "0x1",
      "cumulativeGasUsed": "0x11263a5",
      "logs": [],
      "logsBloom": "0x00000000000000000000000000000000000000000000000000000000000000000000000000000000000000000000000000000000000000000000000000000000000000000000000000000000000000000000000000000000000000000000000000000000000000000000000000000000000000000000000000000000000000000000000000000000000000000000000000000000000000000000000000000000000000000000000000000000000000000000000000000000000000000000000000000000000000000000000000000000000000000000000000000000000000000000000000000000000000000000000000000000000000000000000000000000",
      "type": "0x2",
      "transactionHash": "0x71e8011633020c2fe40afdcacc2bd7e1cad209e86125a9d6968bd95ffcf23e9b",
      "transactionIndex": "0xbc",
      "blockHash": "0xe906eb55abeafdd3d96feff84f8f82a848817b75b6c7d72369f57bdf2b3c5e86",
      "blockNumber": "0x80588e",
      "gasUsed": "0xcb1c",
      "effectiveGasPrice": "0xc6bf7f",
      "from": "0x64dd9d94818a2ca2e95c31b084aef0cc92e86da2",
      "to": "0x8ca782f47ddbfa3f955ec78b0042b412d5f66247",
      "contractAddress": null
    },
    {
      "status": "0x1",
      "cumulativeGasUsed": "0x113134c",
      "logs": [],
      "logsBloom": "0x00000000000000000000000000000000000000000000000000000000000000000000000000000000000000000000000000000000000000000000000000000000000000000000000000000000000000000000000000000000000000000000000000000000000000000000000000000000000000000000000000000000000000000000000000000000000000000000000000000000000000000000000000000000000000000000000000000000000000000000000000000000000000000000000000000000000000000000000000000000000000000000000000000000000000000000000000000000000000000000000000000000000000000000000000000000",
      "type": "0x2",
      "transactionHash": "0x2824cc2e4c393c846eae7e7959b0cfdba773157b54faeb8691eb583a5e6f6345",
      "transactionIndex": "0xbd",
      "blockHash": "0xe906eb55abeafdd3d96feff84f8f82a848817b75b6c7d72369f57bdf2b3c5e86",
      "blockNumber": "0x80588e",
      "gasUsed": "0xafa7",
      "effectiveGasPrice": "0xc6bf7f",
      "from": "0x64dd9d94818a2ca2e95c31b084aef0cc92e86da2",
      "to": "0x8ca782f47ddbfa3f955ec78b0042b412d5f66247",
      "contractAddress": null
    }
  ],
  "libraries": [],
  "pending": [],
  "returns": {
    "carousel": {
      "internal_type": "contract MagicAnimalCarousel",
      "value": "0x8cA782f47DdbFA3F955eC78B0042B412D5f66247"
    }
  },
  "timestamp": 1748273210,
  "chain": 11155111,
  "commit": "4c632de"
}